{
  "contractName": "SimpleStorage",
  "abi": [
    {
      "constant": true,
      "inputs": [],
      "name": "data",
      "outputs": [
        {
          "name": "",
          "type": "string"
        }
      ],
      "payable": false,
      "stateMutability": "view",
      "type": "function",
      "signature": "0x73d4a13a"
    },
    {
      "constant": true,
      "inputs": [
        {
          "name": "",
          "type": "uint256"
        }
      ],
      "name": "ids",
      "outputs": [
        {
          "name": "",
          "type": "uint256"
        }
      ],
      "payable": false,
      "stateMutability": "view",
      "type": "function",
      "signature": "0xfac333ac"
    },
    {
      "constant": true,
      "inputs": [],
      "name": "getData",
      "outputs": [
        {
          "name": "",
          "type": "string"
        }
      ],
      "payable": false,
      "stateMutability": "view",
      "type": "function",
      "signature": "0x3bc5de30"
    },
    {
      "constant": false,
      "inputs": [
        {
          "name": "_data",
          "type": "string"
        }
      ],
      "name": "setData",
      "outputs": [],
      "payable": false,
      "stateMutability": "nonpayable",
      "type": "function",
      "signature": "0x47064d6a"
    },
    {
      "constant": false,
      "inputs": [
        {
          "name": "val",
          "type": "uint256"
        }
      ],
      "name": "addToIds",
      "outputs": [],
      "payable": false,
      "stateMutability": "nonpayable",
      "type": "function",
      "signature": "0x1c0ed7c0"
    },
    {
      "constant": true,
      "inputs": [
        {
          "name": "position",
          "type": "uint256"
        }
      ],
      "name": "getFromIds",
      "outputs": [
        {
          "name": "",
          "type": "uint256"
        }
      ],
      "payable": false,
      "stateMutability": "view",
      "type": "function",
      "signature": "0x8cf91223"
    },
    {
      "constant": true,
      "inputs": [],
      "name": "getAllIds",
      "outputs": [
        {
          "name": "",
          "type": "uint256[]"
        }
      ],
      "payable": false,
      "stateMutability": "view",
      "type": "function",
      "signature": "0xaaa44e5c"
    },
    {
      "constant": true,
      "inputs": [],
      "name": "getLengthOfIds",
      "outputs": [
        {
          "name": "",
          "type": "uint256"
        }
      ],
      "payable": false,
      "stateMutability": "view",
      "type": "function",
      "signature": "0x1c12c93a"
    }
  ],
  "bytecode": "0x608060405234801561001057600080fd5b506106f0806100206000396000f3fe60806040526004361061008e576000357c0100000000000000000000000000000000000000000000000000000000900463ffffffff1680631c0ed7c0146100935780631c12c93a146100ce5780633bc5de30146100f957806347064d6a1461018957806373d4a13a146102515780638cf91223146102e1578063aaa44e5c14610330578063fac333ac1461039c575b600080fd5b34801561009f57600080fd5b506100cc600480360360208110156100b657600080fd5b81019080803590602001909291905050506103eb565b005b3480156100da57600080fd5b506100e361041a565b6040518082815260200191505060405180910390f35b34801561010557600080fd5b5061010e610427565b6040518080602001828103825283818151815260200191508051906020019080838360005b8381101561014e578082015181840152602081019050610133565b50505050905090810190601f16801561017b5780820380516001836020036101000a031916815260200191505b509250505060405180910390f35b34801561019557600080fd5b5061024f600480360360208110156101ac57600080fd5b81019080803590602001906401000000008111156101c957600080fd5b8201836020820111156101db57600080fd5b803590602001918460018302840111640100000000831117156101fd57600080fd5b91908080601f016020809104026020016040519081016040528093929190818152602001838380828437600081840152601f19601f8201169050808301925050505050505091929192905050506104c9565b005b34801561025d57600080fd5b506102666104e3565b6040518080602001828103825283818151815260200191508051906020019080838360005b838110156102a657808201518184015260208101905061028b565b50505050905090810190601f1680156102d35780820380516001836020036101000a031916815260200191505b509250505060405180910390f35b3480156102ed57600080fd5b5061031a6004803603602081101561030457600080fd5b8101908080359060200190929190505050610581565b6040518082815260200191505060405180910390f35b34801561033c57600080fd5b506103456105a4565b6040518080602001828103825283818151815260200191508051906020019060200280838360005b8381101561038857808201518184015260208101905061036d565b505050509050019250505060405180910390f35b3480156103a857600080fd5b506103d5600480360360208110156103bf57600080fd5b81019080803590602001909291905050506105fc565b6040518082815260200191505060405180910390f35b600181908060018154018082558091505090600182039060005260206000200160009091929091909150555050565b6000600180549050905090565b606060008054600181600116156101000203166002900480601f0160208091040260200160405190810160405280929190818152602001828054600181600116156101000203166002900480156104bf5780601f10610494576101008083540402835291602001916104bf565b820191906000526020600020905b8154815290600101906020018083116104a257829003601f168201915b5050505050905090565b80600090805190602001906104df92919061061f565b5050565b60008054600181600116156101000203166002900480601f0160208091040260200160405190810160405280929190818152602001828054600181600116156101000203166002900480156105795780601f1061054e57610100808354040283529160200191610579565b820191906000526020600020905b81548152906001019060200180831161055c57829003601f168201915b505050505081565b600060018281548110151561059257fe5b90600052602060002001549050919050565b606060018054806020026020016040519081016040528092919081815260200182805480156105f257602002820191906000526020600020905b8154815260200190600101908083116105de575b5050505050905090565b60018181548110151561060b57fe5b906000526020600020016000915090505481565b828054600181600116156101000203166002900490600052602060002090601f016020900481019282601f1061066057805160ff191683800117855561068e565b8280016001018555821561068e579182015b8281111561068d578251825591602001919060010190610672565b5b50905061069b919061069f565b5090565b6106c191905b808211156106bd5760008160009055506001016106a5565b5090565b9056fea165627a7a72305820df1185b93fba11107e4bd9114b0ea7e1f29856da9e92df6fcdd907bec80488a00029",
  "source": "pragma solidity >=0.4.22 <0.9.0;\n\ncontract SimpleStorage {\n    string public data;\n    uint256[] public ids;\n\n    function getData() view public returns(string memory) {\n        return data;\n    }\n\n    function setData(string memory _data) public {\n        data = _data;\n    }\n\n    function addToIds(uint256 val) public {\n        ids.push(val);\n    }\n\n    function getFromIds(uint256 position) view public returns(uint256){\n        return ids[position];\n    }\n\n    function getAllIds() view public returns(uint256[] memory) {\n        return ids;\n    }\n\n    function getLengthOfIds() view public returns(uint256) {\n        return ids.length;\n    }\n}",
  "sourcePath": "/home/brivan/Me/Projects/blockchain/simpleStorage_dapp/contracts/SimpleStorage.sol",
  "compiler": {
    "name": "solc",
    "version": "0.5.0+commit.1d4f565a.Emscripten.clang"
  },
  "schemaVersion": "3.0.2",
  "updatedAt": "2022-03-26T15:26:58.042Z",
  "devdoc": {
    "methods": {}
  },
  "userdoc": {
    "methods": {}
  }
}